{
  "contractName": "Gapless",
  "abi": [
    {
      "constant": false,
      "inputs": [
        {
          "name": "_userDataHash",
          "type": "bytes32"
        },
        {
          "name": "_carDataHash",
          "type": "bytes32"
        }
      ],
      "name": "createCarOwnership",
      "outputs": [],
      "payable": false,
      "stateMutability": "nonpayable",
      "type": "function"
    },
    {
      "constant": false,
      "inputs": [
        {
          "name": "_userDocumentHash",
          "type": "bytes32"
        },
        {
          "name": "_userDocumentURL",
          "type": "string"
        }
      ],
      "name": "appendUserDocument",
      "outputs": [],
      "payable": false,
      "stateMutability": "nonpayable",
      "type": "function"
    },
    {
      "constant": false,
      "inputs": [],
      "name": "exerciseRightToBeForgotten",
      "outputs": [],
      "payable": false,
      "stateMutability": "nonpayable",
      "type": "function"
    },
    {
      "constant": true,
      "inputs": [],
      "name": "getCarOwnership",
      "outputs": [
        {
          "name": "",
          "type": "bytes32"
        },
        {
          "name": "",
          "type": "bytes32"
        }
      ],
      "payable": false,
      "stateMutability": "view",
      "type": "function"
    }
  ],
  "bytecode": "0x6060604052341561000f57600080fd5b61074d8061001e6000396000f300606060405260043610610062576000357c0100000000000000000000000000000000000000000000000000000000900463ffffffff168063044c2bd1146100675780639897f87f1461009b578063b2b9f6ac14610105578063c0de548e14610145575b600080fd5b341561007257600080fd5b6100996004808035600019169060200190919080356000191690602001909190505061015a565b005b34156100a657600080fd5b61010360048080356000191690602001909190803590602001908201803590602001908080601f016020809104026020016040519081016040528093929190818152602001838380828437820191505050505050919050506102af565b005b341561011057600080fd5b610118610386565b60405180836000191660001916815260200182600019166000191681526020019250505060405180910390f35b341561015057600080fd5b61015861042d565b005b60006101646104e7565b600160003373ffffffffffffffffffffffffffffffffffffffff1673ffffffffffffffffffffffffffffffffffffffff1681526020019081526020016000205491506000821415156101b557600080fd5b83816000019060001916908160001916815250508281604001906000191690816000191681525050600280548060010182816101f19190610522565b91600052602060002090600402016000839091909150600082015181600001906000191690556020820151816001019080519060200190610233929190610554565b50604082015181600201906000191690556060820151816003019080519060200190610260929190610554565b505050915081600160003373ffffffffffffffffffffffffffffffffffffffff1673ffffffffffffffffffffffffffffffffffffffff1681526020019081526020016000208190555050505050565b6000600160003373ffffffffffffffffffffffffffffffffffffffff1673ffffffffffffffffffffffffffffffffffffffff16815260200190815260200160002054905060008113151561030257600080fd5b60026001820381548110151561031457fe5b9060005260206000209060040201600101805480600101828161033791906105a7565b91600052602060002090016000859091909150906000191690555081600080856000191660001916815260200190815260200160002090805190602001906103809291906105d3565b50505050565b6000806000600160003373ffffffffffffffffffffffffffffffffffffffff1673ffffffffffffffffffffffffffffffffffffffff1681526020019081526020016000205490506000811315156103dc57600080fd5b6002600182038154811015156103ee57fe5b90600052602060002090600402016000015460026001830381548110151561041257fe5b90600052602060002090600402016002015492509250509091565b6000600160003373ffffffffffffffffffffffffffffffffffffffff1673ffffffffffffffffffffffffffffffffffffffff16815260200190815260200160002054905060008113151561048057600080fd5b7fffffffffffffffffffffffffffffffffffffffffffffffffffffffffffffffff600160003373ffffffffffffffffffffffffffffffffffffffff1673ffffffffffffffffffffffffffffffffffffffff1681526020019081526020016000208190555050565b60806040519081016040528060008019168152602001610505610653565b81526020016000801916815260200161051c610653565b81525090565b81548183558181151161054f5760040281600402836000526020600020918201910161054e9190610667565b5b505050565b828054828255906000526020600020908101928215610596579160200282015b82811115610595578251829060001916905591602001919060010190610574565b5b5090506105a391906106b6565b5090565b8154818355818115116105ce578183600052602060002091820191016105cd91906106b6565b5b505050565b828054600181600116156101000203166002900490600052602060002090601f016020900481019282601f1061061457805160ff1916838001178555610642565b82800160010185558215610642579182015b82811115610641578251825591602001919060010190610626565b5b50905061064f91906106db565b5090565b602060405190810160405280600081525090565b6106b391905b808211156106af5760008082016000905560018201600061068e9190610700565b60028201600090556003820160006106a69190610700565b5060040161066d565b5090565b90565b6106d891905b808211156106d45760008160009055506001016106bc565b5090565b90565b6106fd91905b808211156106f95760008160009055506001016106e1565b5090565b90565b508054600082559060005260206000209081019061071e91906106b6565b505600a165627a7a723058206e2fb650209fff8504a90b96e3d6502cee29cecc624a6923d09c2da60f30e66e0029",
  "source": "pragma solidity ^0.4.19;\n\ncontract Gapless {\n\n    struct CarOwnership {\n        bytes32 userDataHash;\n        bytes32[] userDocumentHashes;\n        bytes32 carDataHash;\n        bytes32[] carDocumentHashes;\n    }\n\n    mapping(bytes32 => string) internal hashLinkResolver;\n\n    mapping(address => int) internal userToCarOwnershipMapping;\n\n    CarOwnership[] internal carOwnerships;\n\n    //hashLinkResolver[\"43C1C01651EB3D64219208F8CBDFBDF09F503F436FF650925AAE5C6B43BABCFC\"] = \"https://www.tu-berlin.de/fileadmin/fg38/funktionsuebersicht/beispiel.pdf\";\n    //hashLinkResolver[\"03B687465E782034EE608A3EDB63AA05CD919FD84CBE41C1E7D9C055B24D3168\"] = \"https://www.einfach-fuer-alle.de/artikel/checkliste-barrierefreie-pdf/Checkliste-Barrierefreies-PDF.pdf\";\n\n    function createCarOwnership(bytes32 _userDataHash, bytes32 _carDataHash) public {\n        // one user can have only one car ownership\n        int carOwnershipId = userToCarOwnershipMapping[msg.sender];\n        require(carOwnershipId == 0);\n\n        CarOwnership memory carOwnership;\n\n        carOwnership.userDataHash = _userDataHash;\n        carOwnership.carDataHash = _carDataHash;\n        carOwnershipId = int(carOwnerships.push(carOwnership));\n        userToCarOwnershipMapping[msg.sender] = int(carOwnershipId);\n    }\n\n    function appendUserDocument(bytes32 _userDocumentHash, string _userDocumentURL) public {\n        // Verify if car ownership exists\n        int carOwnershipId = userToCarOwnershipMapping[msg.sender];\n        require(carOwnershipId > 0);\n        // -1 because of array indices\n        carOwnerships[uint(carOwnershipId) - 1].userDocumentHashes.push(_userDocumentHash);\n        hashLinkResolver[_userDocumentHash] = _userDocumentURL;\n    }\n\n    function exerciseRightToBeForgotten() public {\n        // Verify if car ownership exists\n        int carOwnershipId = userToCarOwnershipMapping[msg.sender];\n        require(carOwnershipId > 0);\n\n        userToCarOwnershipMapping[msg.sender] = - 1;\n    }\n\n    function getCarOwnership() public view returns (bytes32, bytes32) {\n        // Verify if car ownership exists\n        int carOwnershipId = userToCarOwnershipMapping[msg.sender];\n        require(carOwnershipId > 0);\n\n        return (carOwnerships[uint(carOwnershipId) - 1].userDataHash, carOwnerships[uint(carOwnershipId) - 1].carDataHash);\n    }\n\n    struct ValueReportRequestResponse {\n        address requestReceiver;\n        address requesterUserId;\n        bytes32 userDataHash;\n        bytes32[] userDocumentHashes;\n        bytes32 carDataHash;\n        bytes32[] carDocumentHashes;\n        bytes32[] userGeneratedCarPictureHashes;\n        bytes32 userGeneratedSelfAssessmentAnswersHash;\n        bytes32 reportProviderResponse;\n    }\n\n    mapping(string => string) internal userGeneratedCarPictures;\n    mapping(string => string) internal userGeneratedSelfAssessmentAnswers;\n    mapping(string => string) internal reportProviderResponses;\n\n    ValueReportRequestResponse[] internal valueReportRequestResponses;\n}",
  "sourcePath": "/Users/denielhorvatic/Documents/00_Projects/blockchain/contracts/1_ESBA_2/contracts/Gapless.sol",
  "compiler": {
    "name": "solc",
    "version": "0.4.19+commit.c4cbbb05.Emscripten.clang"
  },
  "schemaVersion": "1.0.1",
  "updatedAt": "2018-04-25T14:46:20.904Z"
}